{
  "_format": "hh-sol-artifact-1",
  "contractName": "supplyChain",
  "sourceName": "contracts/supplyChain.sol",
  "abi": [
    {
      "anonymous": false,
      "inputs": [
        {
          "indexed": true,
          "internalType": "address",
          "name": "previousOwner",
          "type": "address"
        },
        {
          "indexed": true,
          "internalType": "address",
          "name": "newOwner",
          "type": "address"
        }
      ],
      "name": "OwnershipTransferred",
      "type": "event"
    },
    {
      "inputs": [
        {
          "internalType": "address",
          "name": "_address",
          "type": "address"
        },
        {
          "internalType": "string",
          "name": "_name",
          "type": "string"
        },
        {
          "internalType": "string",
          "name": "_place",
          "type": "string"
        }
      ],
      "name": "addDistribution",
      "outputs": [],
      "stateMutability": "nonpayable",
      "type": "function"
    },
    {
      "inputs": [
        {
          "internalType": "address",
          "name": "_address",
          "type": "address"
        },
        {
          "internalType": "string",
          "name": "_name",
          "type": "string"
        },
        {
          "internalType": "string",
          "name": "_place",
          "type": "string"
        }
      ],
      "name": "addFactory",
      "outputs": [],
      "stateMutability": "nonpayable",
      "type": "function"
    },
    {
      "inputs": [
        {
          "internalType": "string",
          "name": "_itemName",
          "type": "string"
        },
        {
          "internalType": "uint256",
          "name": "_factoryId",
          "type": "uint256"
        },
        {
          "internalType": "uint256",
          "name": "_quantity",
          "type": "uint256"
        },
        {
          "internalType": "uint256",
          "name": "_price",
          "type": "uint256"
        },
        {
          "internalType": "string",
          "name": "_image",
          "type": "string"
        }
      ],
      "name": "addItem",
      "outputs": [],
      "stateMutability": "nonpayable",
      "type": "function"
    },
    {
      "inputs": [
        {
          "internalType": "address",
          "name": "_address",
          "type": "address"
        },
        {
          "internalType": "string",
          "name": "_name",
          "type": "string"
        },
        {
          "internalType": "string",
          "name": "_place",
          "type": "string"
        }
      ],
      "name": "addRetail",
      "outputs": [],
      "stateMutability": "nonpayable",
      "type": "function"
    },
    {
      "inputs": [
        {
          "internalType": "uint256",
          "name": "",
          "type": "uint256"
        }
      ],
      "name": "distributors",
      "outputs": [
        {
          "internalType": "address",
          "name": "addr",
          "type": "address"
        },
        {
          "internalType": "uint256",
          "name": "id",
          "type": "uint256"
        },
        {
          "internalType": "string",
          "name": "name",
          "type": "string"
        },
        {
          "internalType": "string",
          "name": "place",
          "type": "string"
        }
      ],
      "stateMutability": "view",
      "type": "function"
    },
    {
      "inputs": [
        {
          "internalType": "uint256",
          "name": "",
          "type": "uint256"
        }
      ],
      "name": "factories",
      "outputs": [
        {
          "internalType": "address",
          "name": "addr",
          "type": "address"
        },
        {
          "internalType": "uint256",
          "name": "id",
          "type": "uint256"
        },
        {
          "internalType": "string",
          "name": "name",
          "type": "string"
        },
        {
          "internalType": "string",
          "name": "place",
          "type": "string"
        }
      ],
      "stateMutability": "view",
      "type": "function"
    },
    {
      "inputs": [
        {
          "internalType": "uint256",
          "name": "_distributorId",
          "type": "uint256"
        }
      ],
      "name": "getDistributor",
      "outputs": [
        {
          "components": [
            {
              "internalType": "address",
              "name": "addr",
              "type": "address"
            },
            {
              "internalType": "uint256",
              "name": "id",
              "type": "uint256"
            },
            {
              "internalType": "string",
              "name": "name",
              "type": "string"
            },
            {
              "internalType": "string",
              "name": "place",
              "type": "string"
            }
          ],
          "internalType": "struct setLogistic.Distribution",
          "name": "distributorDetail",
          "type": "tuple"
        }
      ],
      "stateMutability": "view",
      "type": "function"
    },
    {
      "inputs": [
        {
          "internalType": "uint256",
          "name": "_factoryId",
          "type": "uint256"
        }
      ],
      "name": "getFactory",
      "outputs": [
        {
          "components": [
            {
              "internalType": "address",
              "name": "addr",
              "type": "address"
            },
            {
              "internalType": "uint256",
              "name": "id",
              "type": "uint256"
            },
            {
              "internalType": "string",
              "name": "name",
              "type": "string"
            },
            {
              "internalType": "string",
              "name": "place",
              "type": "string"
            }
          ],
          "internalType": "struct setLogistic.Factory",
          "name": "factoryDetail",
          "type": "tuple"
        }
      ],
      "stateMutability": "view",
      "type": "function"
    },
    {
      "inputs": [
        {
          "internalType": "uint256",
          "name": "_itemId",
          "type": "uint256"
        }
      ],
      "name": "getItemHistory",
      "outputs": [
        {
          "components": [
            {
              "internalType": "uint256",
              "name": "itemId",
              "type": "uint256"
            },
            {
              "internalType": "string",
              "name": "factoryName",
              "type": "string"
            },
            {
              "internalType": "string",
              "name": "factoryPlace",
              "type": "string"
            },
            {
              "internalType": "uint256",
              "name": "timeMade",
              "type": "uint256"
            },
            {
              "internalType": "string",
              "name": "distributorName",
              "type": "string"
            },
            {
              "internalType": "string",
              "name": "distributorPlace",
              "type": "string"
            },
            {
              "internalType": "uint256",
              "name": "distReceived",
              "type": "uint256"
            },
            {
              "internalType": "string",
              "name": "retailName",
              "type": "string"
            },
            {
              "internalType": "string",
              "name": "retailPlace",
              "type": "string"
            },
            {
              "internalType": "uint256",
              "name": "retReceived",
              "type": "uint256"
            },
            {
              "internalType": "uint256",
              "name": "lastOrder",
              "type": "uint256"
            }
          ],
          "internalType": "struct supplyChain.itemHistory",
          "name": "",
          "type": "tuple"
        }
      ],
      "stateMutability": "view",
      "type": "function"
    },
    {
      "inputs": [
        {
          "internalType": "uint256",
          "name": "_retailId",
          "type": "uint256"
        }
      ],
      "name": "getRetail",
      "outputs": [
        {
          "components": [
            {
              "internalType": "address",
              "name": "addr",
              "type": "address"
            },
            {
              "internalType": "uint256",
              "name": "id",
              "type": "uint256"
            },
            {
              "internalType": "string",
              "name": "name",
              "type": "string"
            },
            {
              "internalType": "string",
              "name": "place",
              "type": "string"
            }
          ],
          "internalType": "struct setLogistic.Retail",
          "name": "retailDetail",
          "type": "tuple"
        }
      ],
      "stateMutability": "view",
      "type": "function"
    },
    {
      "inputs": [],
      "name": "itemCount",
      "outputs": [
        {
          "internalType": "uint256",
          "name": "",
          "type": "uint256"
        }
      ],
      "stateMutability": "view",
      "type": "function"
    },
    {
      "inputs": [
        {
          "internalType": "uint256",
          "name": "",
          "type": "uint256"
        }
      ],
      "name": "itemCreated",
      "outputs": [
        {
          "internalType": "uint256",
          "name": "itemId",
          "type": "uint256"
        },
        {
          "internalType": "uint256",
          "name": "price",
          "type": "uint256"
        },
        {
          "internalType": "uint256",
          "name": "quantity",
          "type": "uint256"
        },
        {
          "internalType": "string",
          "name": "itemName",
          "type": "string"
        },
        {
          "internalType": "string",
          "name": "image",
          "type": "string"
        },
        {
          "internalType": "enum supplyChain.Stage",
          "name": "stage",
          "type": "uint8"
        }
      ],
      "stateMutability": "view",
      "type": "function"
    },
    {
      "inputs": [
        {
          "internalType": "uint256",
          "name": "_itemId",
          "type": "uint256"
        },
        {
          "internalType": "uint256",
          "name": "_distributorId",
          "type": "uint256"
        },
        {
          "internalType": "uint256",
          "name": "_factoryId",
          "type": "uint256"
        }
      ],
      "name": "itemToDistributor",
      "outputs": [],
      "stateMutability": "nonpayable",
      "type": "function"
    },
    {
      "inputs": [
        {
          "internalType": "uint256",
          "name": "_itemId",
          "type": "uint256"
        },
        {
          "internalType": "uint256",
          "name": "_retailId",
          "type": "uint256"
        },
        {
          "internalType": "uint256",
          "name": "_distributorId",
          "type": "uint256"
        }
      ],
      "name": "itemToRetail",
      "outputs": [],
      "stateMutability": "nonpayable",
      "type": "function"
    },
    {
      "inputs": [
        {
          "internalType": "uint256",
          "name": "",
          "type": "uint256"
        }
      ],
      "name": "itemsHistory",
      "outputs": [
        {
          "internalType": "uint256",
          "name": "itemId",
          "type": "uint256"
        },
        {
          "internalType": "string",
          "name": "factoryName",
          "type": "string"
        },
        {
          "internalType": "string",
          "name": "factoryPlace",
          "type": "string"
        },
        {
          "internalType": "uint256",
          "name": "timeMade",
          "type": "uint256"
        },
        {
          "internalType": "string",
          "name": "distributorName",
          "type": "string"
        },
        {
          "internalType": "string",
          "name": "distributorPlace",
          "type": "string"
        },
        {
          "internalType": "uint256",
          "name": "distReceived",
          "type": "uint256"
        },
        {
          "internalType": "string",
          "name": "retailName",
          "type": "string"
        },
        {
          "internalType": "string",
          "name": "retailPlace",
          "type": "string"
        },
        {
          "internalType": "uint256",
          "name": "retReceived",
          "type": "uint256"
        },
        {
          "internalType": "uint256",
          "name": "lastOrder",
          "type": "uint256"
        }
      ],
      "stateMutability": "view",
      "type": "function"
    },
    {
      "inputs": [],
      "name": "owner",
      "outputs": [
        {
          "internalType": "address",
          "name": "",
          "type": "address"
        }
      ],
      "stateMutability": "view",
      "type": "function"
    },
    {
      "inputs": [],
      "name": "renounceOwnership",
      "outputs": [],
      "stateMutability": "nonpayable",
      "type": "function"
    },
    {
      "inputs": [
        {
          "internalType": "uint256",
          "name": "_itemId",
          "type": "uint256"
        },
        {
          "internalType": "uint256",
          "name": "_retailId",
          "type": "uint256"
        }
      ],
      "name": "retailToCustomer",
      "outputs": [],
      "stateMutability": "nonpayable",
      "type": "function"
    },
    {
      "inputs": [
        {
          "internalType": "uint256",
          "name": "",
          "type": "uint256"
        }
      ],
      "name": "retails",
      "outputs": [
        {
          "internalType": "address",
          "name": "addr",
          "type": "address"
        },
        {
          "internalType": "uint256",
          "name": "id",
          "type": "uint256"
        },
        {
          "internalType": "string",
          "name": "name",
          "type": "string"
        },
        {
          "internalType": "string",
          "name": "place",
          "type": "string"
        }
      ],
      "stateMutability": "view",
      "type": "function"
    },
    {
      "inputs": [
        {
          "internalType": "address",
          "name": "newOwner",
          "type": "address"
        }
      ],
      "name": "transferOwnership",
      "outputs": [],
      "stateMutability": "nonpayable",
      "type": "function"
    }
  ],
  "bytecode": "0x608060405260018055600160025560016003553480156200001f57600080fd5b5062000040620000346200004660201b60201c565b6200004e60201b60201c565b62000112565b600033905090565b60008060009054906101000a900473ffffffffffffffffffffffffffffffffffffffff169050816000806101000a81548173ffffffffffffffffffffffffffffffffffffffff021916908373ffffffffffffffffffffffffffffffffffffffff1602179055508173ffffffffffffffffffffffffffffffffffffffff168173ffffffffffffffffffffffffffffffffffffffff167f8be0079c531659141344cd1fd0a4f28419497f9722a3daafe3b4186f6b6457e060405160405180910390a35050565b6132f880620001226000396000f3fe608060405234801561001057600080fd5b506004361061012c5760003560e01c8063715018a6116100ad5780639be5e280116100715780639be5e28014610375578063afa3428014610391578063d304ce44146103ad578063e5746a8f146103e7578063f2fde38b146104035761012c565b8063715018a6146102e557806380a9f6e2146102ef578063839ab96e1461030b5780638da5cb5b1461033b57806390b809e3146103595761012c565b806355a204f9116100f457806355a204f91461020457806360166fe31461023457806366c64e5114610264578063672383c4146102945780636bfb0d01146102c75761012c565b8063018d3e3c1461013157806319fdf68f1461014d57806329c4b1141461016957806350b492ba1461019e5780635249b853146101d1575b600080fd5b61014b600480360381019061014691906122cc565b61041f565b005b610167600480360381019061016291906124b0565b61061a565b005b610183600480360381019061017e919061253b565b610713565b6040516101959695949392919061266d565b60405180910390f35b6101b860048036038101906101b3919061253b565b61086c565b6040516101c894939291906126eb565b60405180910390f35b6101eb60048036038101906101e6919061253b565b6109cc565b6040516101fb94939291906126eb565b60405180910390f35b61021e6004803603810190610219919061253b565b610b2c565b60405161022b9190612810565b60405180910390f35b61024e6004803603810190610249919061253b565b610cdd565b60405161025b919061289c565b60405180910390f35b61027e6004803603810190610279919061253b565b610e8e565b60405161028b91906129d0565b60405180910390f35b6102ae60048036038101906102a9919061253b565b611260565b6040516102be94939291906126eb565b60405180910390f35b6102cf6113c0565b6040516102dc91906129f2565b60405180910390f35b6102ed6113c6565b005b610309600480360381019061030491906124b0565b6113da565b005b6103256004803603810190610320919061253b565b6114d3565b6040516103329190612a77565b60405180910390f35b610343611684565b6040516103509190612a99565b60405180910390f35b610373600480360381019061036e9190612ab4565b6116ad565b005b61038f600480360381019061038a9190612ab4565b611808565b005b6103ab60048036038101906103a691906124b0565b611963565b005b6103c760048036038101906103c2919061253b565b611a5c565b6040516103de9b9a99989796959493929190612b07565b60405180910390f35b61040160048036038101906103fc9190612bdc565b611de6565b005b61041d60048036038101906104189190612c8f565b611fa1565b005b6000600860008481526020019081526020016000206040518060c001604052908160008201548152602001600182015481526020016002820154815260200160038201805461046d90612ceb565b80601f016020809104026020016040519081016040528092919081815260200182805461049990612ceb565b80156104e65780601f106104bb576101008083540402835291602001916104e6565b820191906000526020600020905b8154815290600101906020018083116104c957829003601f168201915b505050505081526020016004820180546104ff90612ceb565b80601f016020809104026020016040519081016040528092919081815260200182805461052b90612ceb565b80156105785780601f1061054d57610100808354040283529160200191610578565b820191906000526020600020905b81548152906001019060200180831161055b57829003601f168201915b505050505081526020016005820160009054906101000a900460ff1660048111156105a6576105a56125f6565b5b60048111156105b8576105b76125f6565b5b81525050905060008160400151116105cf57600080fd5b600181604001516105e09190612d4b565b60086000858152602001908152602001600020600201819055504260096000858152602001908152602001600020600a0181905550505050565b610622612024565b600060405180608001604052808573ffffffffffffffffffffffffffffffffffffffff16815260200160015481526020018481526020018381525090508060046000600154815260200190815260200160002060008201518160000160006101000a81548173ffffffffffffffffffffffffffffffffffffffff021916908373ffffffffffffffffffffffffffffffffffffffff1602179055506020820151816001015560408201518160020190816106db9190612f2b565b5060608201518160030190816106f19190612f2b565b509050506001600081548092919061070890612ffd565b919050555050505050565b600860205280600052604060002060009150905080600001549080600101549080600201549080600301805461074890612ceb565b80601f016020809104026020016040519081016040528092919081815260200182805461077490612ceb565b80156107c15780601f10610796576101008083540402835291602001916107c1565b820191906000526020600020905b8154815290600101906020018083116107a457829003601f168201915b5050505050908060040180546107d690612ceb565b80601f016020809104026020016040519081016040528092919081815260200182805461080290612ceb565b801561084f5780601f106108245761010080835404028352916020019161084f565b820191906000526020600020905b81548152906001019060200180831161083257829003601f168201915b5050505050908060050160009054906101000a900460ff16905086565b60056020528060005260406000206000915090508060000160009054906101000a900473ffffffffffffffffffffffffffffffffffffffff16908060010154908060020180546108bb90612ceb565b80601f01602080910402602001604051908101604052809291908181526020018280546108e790612ceb565b80156109345780601f1061090957610100808354040283529160200191610934565b820191906000526020600020905b81548152906001019060200180831161091757829003601f168201915b50505050509080600301805461094990612ceb565b80601f016020809104026020016040519081016040528092919081815260200182805461097590612ceb565b80156109c25780601f10610997576101008083540402835291602001916109c2565b820191906000526020600020905b8154815290600101906020018083116109a557829003601f168201915b5050505050905084565b60066020528060005260406000206000915090508060000160009054906101000a900473ffffffffffffffffffffffffffffffffffffffff1690806001015490806002018054610a1b90612ceb565b80601f0160208091040260200160405190810160405280929190818152602001828054610a4790612ceb565b8015610a945780601f10610a6957610100808354040283529160200191610a94565b820191906000526020600020905b815481529060010190602001808311610a7757829003601f168201915b505050505090806003018054610aa990612ceb565b80601f0160208091040260200160405190810160405280929190818152602001828054610ad590612ceb565b8015610b225780601f10610af757610100808354040283529160200191610b22565b820191906000526020600020905b815481529060010190602001808311610b0557829003601f168201915b5050505050905084565b610b3461216e565b600460008381526020019081526020016000206040518060800160405290816000820160009054906101000a900473ffffffffffffffffffffffffffffffffffffffff1673ffffffffffffffffffffffffffffffffffffffff1673ffffffffffffffffffffffffffffffffffffffff16815260200160018201548152602001600282018054610bc290612ceb565b80601f0160208091040260200160405190810160405280929190818152602001828054610bee90612ceb565b8015610c3b5780601f10610c1057610100808354040283529160200191610c3b565b820191906000526020600020905b815481529060010190602001808311610c1e57829003601f168201915b50505050508152602001600382018054610c5490612ceb565b80601f0160208091040260200160405190810160405280929190818152602001828054610c8090612ceb565b8015610ccd5780601f10610ca257610100808354040283529160200191610ccd565b820191906000526020600020905b815481529060010190602001808311610cb057829003601f168201915b5050505050815250509050919050565b610ce56121ac565b600560008381526020019081526020016000206040518060800160405290816000820160009054906101000a900473ffffffffffffffffffffffffffffffffffffffff1673ffffffffffffffffffffffffffffffffffffffff1673ffffffffffffffffffffffffffffffffffffffff16815260200160018201548152602001600282018054610d7390612ceb565b80601f0160208091040260200160405190810160405280929190818152602001828054610d9f90612ceb565b8015610dec5780601f10610dc157610100808354040283529160200191610dec565b820191906000526020600020905b815481529060010190602001808311610dcf57829003601f168201915b50505050508152602001600382018054610e0590612ceb565b80601f0160208091040260200160405190810160405280929190818152602001828054610e3190612ceb565b8015610e7e5780601f10610e5357610100808354040283529160200191610e7e565b820191906000526020600020905b815481529060010190602001808311610e6157829003601f168201915b5050505050815250509050919050565b610e966121ea565b6000600960008481526020019081526020016000206040518061016001604052908160008201548152602001600182018054610ed190612ceb565b80601f0160208091040260200160405190810160405280929190818152602001828054610efd90612ceb565b8015610f4a5780601f10610f1f57610100808354040283529160200191610f4a565b820191906000526020600020905b815481529060010190602001808311610f2d57829003601f168201915b50505050508152602001600282018054610f6390612ceb565b80601f0160208091040260200160405190810160405280929190818152602001828054610f8f90612ceb565b8015610fdc5780601f10610fb157610100808354040283529160200191610fdc565b820191906000526020600020905b815481529060010190602001808311610fbf57829003601f168201915b5050505050815260200160038201548152602001600482018054610fff90612ceb565b80601f016020809104026020016040519081016040528092919081815260200182805461102b90612ceb565b80156110785780601f1061104d57610100808354040283529160200191611078565b820191906000526020600020905b81548152906001019060200180831161105b57829003601f168201915b5050505050815260200160058201805461109190612ceb565b80601f01602080910402602001604051908101604052809291908181526020018280546110bd90612ceb565b801561110a5780601f106110df5761010080835404028352916020019161110a565b820191906000526020600020905b8154815290600101906020018083116110ed57829003601f168201915b505050505081526020016006820154815260200160078201805461112d90612ceb565b80601f016020809104026020016040519081016040528092919081815260200182805461115990612ceb565b80156111a65780601f1061117b576101008083540402835291602001916111a6565b820191906000526020600020905b81548152906001019060200180831161118957829003601f168201915b505050505081526020016008820180546111bf90612ceb565b80601f01602080910402602001604051908101604052809291908181526020018280546111eb90612ceb565b80156112385780601f1061120d57610100808354040283529160200191611238565b820191906000526020600020905b81548152906001019060200180831161121b57829003601f168201915b5050505050815260200160098201548152602001600a82015481525050905080915050919050565b60046020528060005260406000206000915090508060000160009054906101000a900473ffffffffffffffffffffffffffffffffffffffff16908060010154908060020180546112af90612ceb565b80601f01602080910402602001604051908101604052809291908181526020018280546112db90612ceb565b80156113285780601f106112fd57610100808354040283529160200191611328565b820191906000526020600020905b81548152906001019060200180831161130b57829003601f168201915b50505050509080600301805461133d90612ceb565b80601f016020809104026020016040519081016040528092919081815260200182805461136990612ceb565b80156113b65780601f1061138b576101008083540402835291602001916113b6565b820191906000526020600020905b81548152906001019060200180831161139957829003601f168201915b5050505050905084565b60075481565b6113ce612024565b6113d860006120a2565b565b6113e2612024565b600060405180608001604052808573ffffffffffffffffffffffffffffffffffffffff16815260200160035481526020018481526020018381525090508060066000600354815260200190815260200160002060008201518160000160006101000a81548173ffffffffffffffffffffffffffffffffffffffff021916908373ffffffffffffffffffffffffffffffffffffffff16021790555060208201518160010155604082015181600201908161149b9190612f2b565b5060608201518160030190816114b19190612f2b565b50905050600360008154809291906114c890612ffd565b919050555050505050565b6114db612244565b600660008381526020019081526020016000206040518060800160405290816000820160009054906101000a900473ffffffffffffffffffffffffffffffffffffffff1673ffffffffffffffffffffffffffffffffffffffff1673ffffffffffffffffffffffffffffffffffffffff1681526020016001820154815260200160028201805461156990612ceb565b80601f016020809104026020016040519081016040528092919081815260200182805461159590612ceb565b80156115e25780601f106115b7576101008083540402835291602001916115e2565b820191906000526020600020905b8154815290600101906020018083116115c557829003601f168201915b505050505081526020016003820180546115fb90612ceb565b80601f016020809104026020016040519081016040528092919081815260200182805461162790612ceb565b80156116745780601f1061164957610100808354040283529160200191611674565b820191906000526020600020905b81548152906001019060200180831161165757829003601f168201915b5050505050815250509050919050565b60008060009054906101000a900473ffffffffffffffffffffffffffffffffffffffff16905090565b600260048111156116c1576116c06125f6565b5b6008600085815260200190815260200160002060050160009054906101000a900460ff1660048111156116f7576116f66125f6565b5b14611737576040517f08c379a000000000000000000000000000000000000000000000000000000000815260040161172e90613091565b60405180910390fd5b60036008600085815260200190815260200160002060050160006101000a81548160ff02191690836004811115611771576117706125f6565b5b0217905550600660008381526020019081526020016000206002016009600085815260200190815260200160002060070190816117ae91906130dc565b50600660008381526020019081526020016000206003016009600085815260200190815260200160002060080190816117e791906130dc565b50426009600085815260200190815260200160002060090181905550505050565b6001600481111561181c5761181b6125f6565b5b6008600085815260200190815260200160002060050160009054906101000a900460ff166004811115611852576118516125f6565b5b14611892576040517f08c379a000000000000000000000000000000000000000000000000000000000815260040161188990613091565b60405180910390fd5b60026008600085815260200190815260200160002060050160006101000a81548160ff021916908360048111156118cc576118cb6125f6565b5b02179055506005600083815260200190815260200160002060020160096000858152602001908152602001600020600401908161190991906130dc565b506005600083815260200190815260200160002060030160096000858152602001908152602001600020600501908161194291906130dc565b50426009600085815260200190815260200160002060060181905550505050565b61196b612024565b600060405180608001604052808573ffffffffffffffffffffffffffffffffffffffff16815260200160025481526020018481526020018381525090508060056000600254815260200190815260200160002060008201518160000160006101000a81548173ffffffffffffffffffffffffffffffffffffffff021916908373ffffffffffffffffffffffffffffffffffffffff160217905550602082015181600101556040820151816002019081611a249190612f2b565b506060820151816003019081611a3a9190612f2b565b5090505060026000815480929190611a5190612ffd565b919050555050505050565b6009602052806000526040600020600091509050806000015490806001018054611a8590612ceb565b80601f0160208091040260200160405190810160405280929190818152602001828054611ab190612ceb565b8015611afe5780601f10611ad357610100808354040283529160200191611afe565b820191906000526020600020905b815481529060010190602001808311611ae157829003601f168201915b505050505090806002018054611b1390612ceb565b80601f0160208091040260200160405190810160405280929190818152602001828054611b3f90612ceb565b8015611b8c5780601f10611b6157610100808354040283529160200191611b8c565b820191906000526020600020905b815481529060010190602001808311611b6f57829003601f168201915b505050505090806003015490806004018054611ba790612ceb565b80601f0160208091040260200160405190810160405280929190818152602001828054611bd390612ceb565b8015611c205780601f10611bf557610100808354040283529160200191611c20565b820191906000526020600020905b815481529060010190602001808311611c0357829003601f168201915b505050505090806005018054611c3590612ceb565b80601f0160208091040260200160405190810160405280929190818152602001828054611c6190612ceb565b8015611cae5780601f10611c8357610100808354040283529160200191611cae565b820191906000526020600020905b815481529060010190602001808311611c9157829003601f168201915b505050505090806006015490806007018054611cc990612ceb565b80601f0160208091040260200160405190810160405280929190818152602001828054611cf590612ceb565b8015611d425780601f10611d1757610100808354040283529160200191611d42565b820191906000526020600020905b815481529060010190602001808311611d2557829003601f168201915b505050505090806008018054611d5790612ceb565b80601f0160208091040260200160405190810160405280929190818152602001828054611d8390612ceb565b8015611dd05780601f10611da557610100808354040283529160200191611dd0565b820191906000526020600020905b815481529060010190602001808311611db357829003601f168201915b50505050509080600901549080600a015490508b565b60076000815480929190611df990612ffd565b91905055506040518060c00160405280600754815260200183815260200184815260200186815260200182815260200160016004811115611e3d57611e3c6125f6565b5b8152506008600060075481526020019081526020016000206000820151816000015560208201518160010155604082015181600201556060820151816003019081611e889190612f2b565b506080820151816004019081611e9e9190612f2b565b5060a08201518160050160006101000a81548160ff02191690836004811115611eca57611ec96125f6565b5b02179055509050506008600060075481526020019081526020016000206000015460096000600754815260200190815260200160002060000181905550600460008581526020019081526020016000206002016009600060075481526020019081526020016000206001019081611f4191906130dc565b50600460008581526020019081526020016000206003016009600060075481526020019081526020016000206002019081611f7c91906130dc565b5042600960006007548152602001908152602001600020600301819055505050505050565b611fa9612024565b600073ffffffffffffffffffffffffffffffffffffffff168173ffffffffffffffffffffffffffffffffffffffff1603612018576040517f08c379a000000000000000000000000000000000000000000000000000000000815260040161200f90613236565b60405180910390fd5b612021816120a2565b50565b61202c612166565b73ffffffffffffffffffffffffffffffffffffffff1661204a611684565b73ffffffffffffffffffffffffffffffffffffffff16146120a0576040517f08c379a0000000000000000000000000000000000000000000000000000000008152600401612097906132a2565b60405180910390fd5b565b60008060009054906101000a900473ffffffffffffffffffffffffffffffffffffffff169050816000806101000a81548173ffffffffffffffffffffffffffffffffffffffff021916908373ffffffffffffffffffffffffffffffffffffffff1602179055508173ffffffffffffffffffffffffffffffffffffffff168173ffffffffffffffffffffffffffffffffffffffff167f8be0079c531659141344cd1fd0a4f28419497f9722a3daafe3b4186f6b6457e060405160405180910390a35050565b600033905090565b6040518060800160405280600073ffffffffffffffffffffffffffffffffffffffff1681526020016000815260200160608152602001606081525090565b6040518060800160405280600073ffffffffffffffffffffffffffffffffffffffff1681526020016000815260200160608152602001606081525090565b60405180610160016040528060008152602001606081526020016060815260200160008152602001606081526020016060815260200160008152602001606081526020016060815260200160008152602001600081525090565b6040518060800160405280600073ffffffffffffffffffffffffffffffffffffffff1681526020016000815260200160608152602001606081525090565b6000604051905090565b600080fd5b600080fd5b6000819050919050565b6122a981612296565b81146122b457600080fd5b50565b6000813590506122c6816122a0565b92915050565b600080604083850312156122e3576122e261228c565b5b60006122f1858286016122b7565b9250506020612302858286016122b7565b9150509250929050565b600073ffffffffffffffffffffffffffffffffffffffff82169050919050565b60006123378261230c565b9050919050565b6123478161232c565b811461235257600080fd5b50565b6000813590506123648161233e565b92915050565b600080fd5b600080fd5b6000601f19601f8301169050919050565b7f4e487b7100000000000000000000000000000000000000000000000000000000600052604160045260246000fd5b6123bd82612374565b810181811067ffffffffffffffff821117156123dc576123db612385565b5b80604052505050565b60006123ef612282565b90506123fb82826123b4565b919050565b600067ffffffffffffffff82111561241b5761241a612385565b5b61242482612374565b9050602081019050919050565b82818337600083830152505050565b600061245361244e84612400565b6123e5565b90508281526020810184848401111561246f5761246e61236f565b5b61247a848285612431565b509392505050565b600082601f8301126124975761249661236a565b5b81356124a7848260208601612440565b91505092915050565b6000806000606084860312156124c9576124c861228c565b5b60006124d786828701612355565b935050602084013567ffffffffffffffff8111156124f8576124f7612291565b5b61250486828701612482565b925050604084013567ffffffffffffffff81111561252557612524612291565b5b61253186828701612482565b9150509250925092565b6000602082840312156125515761255061228c565b5b600061255f848285016122b7565b91505092915050565b61257181612296565b82525050565b600081519050919050565b600082825260208201905092915050565b60005b838110156125b1578082015181840152602081019050612596565b60008484015250505050565b60006125c882612577565b6125d28185612582565b93506125e2818560208601612593565b6125eb81612374565b840191505092915050565b7f4e487b7100000000000000000000000000000000000000000000000000000000600052602160045260246000fd5b60058110612636576126356125f6565b5b50565b600081905061264782612625565b919050565b600061265782612639565b9050919050565b6126678161264c565b82525050565b600060c0820190506126826000830189612568565b61268f6020830188612568565b61269c6040830187612568565b81810360608301526126ae81866125bd565b905081810360808301526126c281856125bd565b90506126d160a083018461265e565b979650505050505050565b6126e58161232c565b82525050565b600060808201905061270060008301876126dc565b61270d6020830186612568565b818103604083015261271f81856125bd565b9050818103606083015261273381846125bd565b905095945050505050565b6127478161232c565b82525050565b61275681612296565b82525050565b600082825260208201905092915050565b600061277882612577565b612782818561275c565b9350612792818560208601612593565b61279b81612374565b840191505092915050565b60006080830160008301516127be600086018261273e565b5060208301516127d1602086018261274d565b50604083015184820360408601526127e9828261276d565b91505060608301518482036060860152612803828261276d565b9150508091505092915050565b6000602082019050818103600083015261282a81846127a6565b905092915050565b600060808301600083015161284a600086018261273e565b50602083015161285d602086018261274d565b5060408301518482036040860152612875828261276d565b9150506060830151848203606086015261288f828261276d565b9150508091505092915050565b600060208201905081810360008301526128b68184612832565b905092915050565b6000610160830160008301516128d7600086018261274d565b50602083015184820360208601526128ef828261276d565b91505060408301518482036040860152612909828261276d565b915050606083015161291e606086018261274d565b5060808301518482036080860152612936828261276d565b91505060a083015184820360a0860152612950828261276d565b91505060c083015161296560c086018261274d565b5060e083015184820360e086015261297d828261276d565b915050610100830151848203610100860152612999828261276d565b9150506101208301516129b061012086018261274d565b506101408301516129c561014086018261274d565b508091505092915050565b600060208201905081810360008301526129ea81846128be565b905092915050565b6000602082019050612a076000830184612568565b92915050565b6000608083016000830151612a25600086018261273e565b506020830151612a38602086018261274d565b5060408301518482036040860152612a50828261276d565b91505060608301518482036060860152612a6a828261276d565b9150508091505092915050565b60006020820190508181036000830152612a918184612a0d565b905092915050565b6000602082019050612aae60008301846126dc565b92915050565b600080600060608486031215612acd57612acc61228c565b5b6000612adb868287016122b7565b9350506020612aec868287016122b7565b9250506040612afd868287016122b7565b9150509250925092565b600061016082019050612b1d600083018e612568565b8181036020830152612b2f818d6125bd565b90508181036040830152612b43818c6125bd565b9050612b52606083018b612568565b8181036080830152612b64818a6125bd565b905081810360a0830152612b7881896125bd565b9050612b8760c0830188612568565b81810360e0830152612b9981876125bd565b9050818103610100830152612bae81866125bd565b9050612bbe610120830185612568565b612bcc610140830184612568565b9c9b505050505050505050505050565b600080600080600060a08688031215612bf857612bf761228c565b5b600086013567ffffffffffffffff811115612c1657612c15612291565b5b612c2288828901612482565b9550506020612c33888289016122b7565b9450506040612c44888289016122b7565b9350506060612c55888289016122b7565b925050608086013567ffffffffffffffff811115612c7657612c75612291565b5b612c8288828901612482565b9150509295509295909350565b600060208284031215612ca557612ca461228c565b5b6000612cb384828501612355565b91505092915050565b7f4e487b7100000000000000000000000000000000000000000000000000000000600052602260045260246000fd5b60006002820490506001821680612d0357607f821691505b602082108103612d1657612d15612cbc565b5b50919050565b7f4e487b7100000000000000000000000000000000000000000000000000000000600052601160045260246000fd5b6000612d5682612296565b9150612d6183612296565b9250828203905081811115612d7957612d78612d1c565b5b92915050565b60008190508160005260206000209050919050565b60006020601f8301049050919050565b600082821b905092915050565b600060088302612de17fffffffffffffffffffffffffffffffffffffffffffffffffffffffffffffffff82612da4565b612deb8683612da4565b95508019841693508086168417925050509392505050565b6000819050919050565b6000612e28612e23612e1e84612296565b612e03565b612296565b9050919050565b6000819050919050565b612e4283612e0d565b612e56612e4e82612e2f565b848454612db1565b825550505050565b600090565b612e6b612e5e565b612e76818484612e39565b505050565b5b81811015612e9a57612e8f600082612e63565b600181019050612e7c565b5050565b601f821115612edf57612eb081612d7f565b612eb984612d94565b81016020851015612ec8578190505b612edc612ed485612d94565b830182612e7b565b50505b505050565b600082821c905092915050565b6000612f0260001984600802612ee4565b1980831691505092915050565b6000612f1b8383612ef1565b9150826002028217905092915050565b612f3482612577565b67ffffffffffffffff811115612f4d57612f4c612385565b5b612f578254612ceb565b612f62828285612e9e565b600060209050601f831160018114612f955760008415612f83578287015190505b612f8d8582612f0f565b865550612ff5565b601f198416612fa386612d7f565b60005b82811015612fcb57848901518255600182019150602085019450602081019050612fa6565b86831015612fe85784890151612fe4601f891682612ef1565b8355505b6001600288020188555050505b505050505050565b600061300882612296565b91507fffffffffffffffffffffffffffffffffffffffffffffffffffffffffffffffff820361303a57613039612d1c565b5b600182019050919050565b7f77726f6e67207374616765000000000000000000000000000000000000000000600082015250565b600061307b600b83612582565b915061308682613045565b602082019050919050565b600060208201905081810360008301526130aa8161306e565b9050919050565b6000815490506130c081612ceb565b9050919050565b60008190508160005260206000209050919050565b8181036130ea5750506131c2565b6130f3826130b1565b67ffffffffffffffff81111561310c5761310b612385565b5b6131168254612ceb565b613121828285612e9e565b6000601f831160018114613150576000841561313e578287015490505b6131488582612f0f565b8655506131bb565b601f19841661315e876130c7565b965061316986612d7f565b60005b828110156131915784890154825560018201915060018501945060208101905061316c565b868310156131ae57848901546131aa601f891682612ef1565b8355505b6001600288020188555050505b5050505050505b565b7f4f776e61626c653a206e6577206f776e657220697320746865207a65726f206160008201527f6464726573730000000000000000000000000000000000000000000000000000602082015250565b6000613220602683612582565b915061322b826131c4565b604082019050919050565b6000602082019050818103600083015261324f81613213565b9050919050565b7f4f776e61626c653a2063616c6c6572206973206e6f7420746865206f776e6572600082015250565b600061328c602083612582565b915061329782613256565b602082019050919050565b600060208201905081810360008301526132bb8161327f565b905091905056fea2646970667358221220845848045ed48be44320fb9f8da854ee2412c17eeef7a732e278f6209e48115764736f6c63430008110033",
  "linkReferences": {},
  "deployedLinkReferences": {}
}