{
  "_format": "hh-sol-artifact-1",
  "contractName": "supplyChain",
  "sourceName": "contracts/supplyChain.sol",
  "abi": [
    {
      "anonymous": false,
      "inputs": [
        {
          "indexed": true,
          "internalType": "address",
          "name": "previousOwner",
          "type": "address"
        },
        {
          "indexed": true,
          "internalType": "address",
          "name": "newOwner",
          "type": "address"
        }
      ],
      "name": "OwnershipTransferred",
      "type": "event"
    },
    {
      "inputs": [
        {
          "internalType": "string",
          "name": "_name",
          "type": "string"
        },
        {
          "internalType": "string",
          "name": "_place",
          "type": "string"
        }
      ],
      "name": "addDistribution",
      "outputs": [],
      "stateMutability": "nonpayable",
      "type": "function"
    },
    {
      "inputs": [
        {
          "internalType": "string",
          "name": "_name",
          "type": "string"
        },
        {
          "internalType": "string",
          "name": "_place",
          "type": "string"
        }
      ],
      "name": "addFactory",
      "outputs": [],
      "stateMutability": "nonpayable",
      "type": "function"
    },
    {
      "inputs": [
        {
          "internalType": "string",
          "name": "_itemName",
          "type": "string"
        },
        {
          "internalType": "uint256",
          "name": "_factoryId",
          "type": "uint256"
        },
        {
          "internalType": "uint256",
          "name": "_quantity",
          "type": "uint256"
        },
        {
          "internalType": "uint256",
          "name": "_price",
          "type": "uint256"
        },
        {
          "internalType": "string",
          "name": "_image",
          "type": "string"
        }
      ],
      "name": "addItem",
      "outputs": [],
      "stateMutability": "nonpayable",
      "type": "function"
    },
    {
      "inputs": [
        {
          "internalType": "string",
          "name": "_name",
          "type": "string"
        },
        {
          "internalType": "string",
          "name": "_place",
          "type": "string"
        }
      ],
      "name": "addRetail",
      "outputs": [],
      "stateMutability": "nonpayable",
      "type": "function"
    },
    {
      "inputs": [
        {
          "internalType": "uint256",
          "name": "",
          "type": "uint256"
        }
      ],
      "name": "distributors",
      "outputs": [
        {
          "internalType": "uint256",
          "name": "id",
          "type": "uint256"
        },
        {
          "internalType": "string",
          "name": "name",
          "type": "string"
        },
        {
          "internalType": "string",
          "name": "place",
          "type": "string"
        }
      ],
      "stateMutability": "view",
      "type": "function"
    },
    {
      "inputs": [
        {
          "internalType": "uint256",
          "name": "",
          "type": "uint256"
        }
      ],
      "name": "factories",
      "outputs": [
        {
          "internalType": "uint256",
          "name": "id",
          "type": "uint256"
        },
        {
          "internalType": "string",
          "name": "name",
          "type": "string"
        },
        {
          "internalType": "string",
          "name": "place",
          "type": "string"
        }
      ],
      "stateMutability": "view",
      "type": "function"
    },
    {
      "inputs": [
        {
          "internalType": "uint256",
          "name": "_distributorId",
          "type": "uint256"
        }
      ],
      "name": "getDistributor",
      "outputs": [
        {
          "components": [
            {
              "internalType": "uint256",
              "name": "id",
              "type": "uint256"
            },
            {
              "internalType": "string",
              "name": "name",
              "type": "string"
            },
            {
              "internalType": "string",
              "name": "place",
              "type": "string"
            }
          ],
          "internalType": "struct setLogistic.Distribution",
          "name": "distributorDetail",
          "type": "tuple"
        }
      ],
      "stateMutability": "view",
      "type": "function"
    },
    {
      "inputs": [
        {
          "internalType": "uint256",
          "name": "_factoryId",
          "type": "uint256"
        }
      ],
      "name": "getFactory",
      "outputs": [
        {
          "components": [
            {
              "internalType": "uint256",
              "name": "id",
              "type": "uint256"
            },
            {
              "internalType": "string",
              "name": "name",
              "type": "string"
            },
            {
              "internalType": "string",
              "name": "place",
              "type": "string"
            }
          ],
          "internalType": "struct setLogistic.Factory",
          "name": "factoryDetail",
          "type": "tuple"
        }
      ],
      "stateMutability": "view",
      "type": "function"
    },
    {
      "inputs": [
        {
          "internalType": "uint256",
          "name": "_itemId",
          "type": "uint256"
        }
      ],
      "name": "getItemHistory",
      "outputs": [
        {
          "components": [
            {
              "internalType": "uint256",
              "name": "itemId",
              "type": "uint256"
            },
            {
              "internalType": "string",
              "name": "factoryName",
              "type": "string"
            },
            {
              "internalType": "string",
              "name": "factoryPlace",
              "type": "string"
            },
            {
              "internalType": "uint256",
              "name": "timeMade",
              "type": "uint256"
            },
            {
              "internalType": "string",
              "name": "distributorName",
              "type": "string"
            },
            {
              "internalType": "string",
              "name": "distributorPlace",
              "type": "string"
            },
            {
              "internalType": "uint256",
              "name": "distReceived",
              "type": "uint256"
            },
            {
              "internalType": "string",
              "name": "retailName",
              "type": "string"
            },
            {
              "internalType": "string",
              "name": "retailPlace",
              "type": "string"
            },
            {
              "internalType": "uint256",
              "name": "retReceived",
              "type": "uint256"
            },
            {
              "internalType": "uint256",
              "name": "lastOrder",
              "type": "uint256"
            }
          ],
          "internalType": "struct supplyChain.itemHistory",
          "name": "",
          "type": "tuple"
        }
      ],
      "stateMutability": "view",
      "type": "function"
    },
    {
      "inputs": [
        {
          "internalType": "uint256",
          "name": "_retailId",
          "type": "uint256"
        }
      ],
      "name": "getRetail",
      "outputs": [
        {
          "components": [
            {
              "internalType": "uint256",
              "name": "id",
              "type": "uint256"
            },
            {
              "internalType": "string",
              "name": "name",
              "type": "string"
            },
            {
              "internalType": "string",
              "name": "place",
              "type": "string"
            }
          ],
          "internalType": "struct setLogistic.Retail",
          "name": "retailDetail",
          "type": "tuple"
        }
      ],
      "stateMutability": "view",
      "type": "function"
    },
    {
      "inputs": [],
      "name": "itemCount",
      "outputs": [
        {
          "internalType": "uint256",
          "name": "",
          "type": "uint256"
        }
      ],
      "stateMutability": "view",
      "type": "function"
    },
    {
      "inputs": [
        {
          "internalType": "uint256",
          "name": "",
          "type": "uint256"
        }
      ],
      "name": "itemCreated",
      "outputs": [
        {
          "internalType": "uint256",
          "name": "itemId",
          "type": "uint256"
        },
        {
          "internalType": "uint256",
          "name": "Price",
          "type": "uint256"
        },
        {
          "internalType": "uint256",
          "name": "quantity",
          "type": "uint256"
        },
        {
          "internalType": "string",
          "name": "itemName",
          "type": "string"
        },
        {
          "internalType": "string",
          "name": "image",
          "type": "string"
        },
        {
          "internalType": "enum supplyChain.Stage",
          "name": "stage",
          "type": "uint8"
        }
      ],
      "stateMutability": "view",
      "type": "function"
    },
    {
      "inputs": [
        {
          "internalType": "uint256",
          "name": "_itemId",
          "type": "uint256"
        },
        {
          "internalType": "uint256",
          "name": "_distributorId",
          "type": "uint256"
        },
        {
          "internalType": "uint256",
          "name": "_factoryId",
          "type": "uint256"
        }
      ],
      "name": "itemToDistributor",
      "outputs": [],
      "stateMutability": "nonpayable",
      "type": "function"
    },
    {
      "inputs": [
        {
          "internalType": "uint256",
          "name": "_itemId",
          "type": "uint256"
        },
        {
          "internalType": "uint256",
          "name": "_retailId",
          "type": "uint256"
        },
        {
          "internalType": "uint256",
          "name": "_distributorId",
          "type": "uint256"
        }
      ],
      "name": "itemToRetail",
      "outputs": [],
      "stateMutability": "nonpayable",
      "type": "function"
    },
    {
      "inputs": [
        {
          "internalType": "uint256",
          "name": "",
          "type": "uint256"
        }
      ],
      "name": "itemsHistory",
      "outputs": [
        {
          "internalType": "uint256",
          "name": "itemId",
          "type": "uint256"
        },
        {
          "internalType": "string",
          "name": "factoryName",
          "type": "string"
        },
        {
          "internalType": "string",
          "name": "factoryPlace",
          "type": "string"
        },
        {
          "internalType": "uint256",
          "name": "timeMade",
          "type": "uint256"
        },
        {
          "internalType": "string",
          "name": "distributorName",
          "type": "string"
        },
        {
          "internalType": "string",
          "name": "distributorPlace",
          "type": "string"
        },
        {
          "internalType": "uint256",
          "name": "distReceived",
          "type": "uint256"
        },
        {
          "internalType": "string",
          "name": "retailName",
          "type": "string"
        },
        {
          "internalType": "string",
          "name": "retailPlace",
          "type": "string"
        },
        {
          "internalType": "uint256",
          "name": "retReceived",
          "type": "uint256"
        },
        {
          "internalType": "uint256",
          "name": "lastOrder",
          "type": "uint256"
        }
      ],
      "stateMutability": "view",
      "type": "function"
    },
    {
      "inputs": [],
      "name": "owner",
      "outputs": [
        {
          "internalType": "address",
          "name": "",
          "type": "address"
        }
      ],
      "stateMutability": "view",
      "type": "function"
    },
    {
      "inputs": [],
      "name": "renounceOwnership",
      "outputs": [],
      "stateMutability": "nonpayable",
      "type": "function"
    },
    {
      "inputs": [
        {
          "internalType": "uint256",
          "name": "_itemId",
          "type": "uint256"
        },
        {
          "internalType": "uint256",
          "name": "_retailId",
          "type": "uint256"
        }
      ],
      "name": "retailToCustomer",
      "outputs": [],
      "stateMutability": "nonpayable",
      "type": "function"
    },
    {
      "inputs": [
        {
          "internalType": "uint256",
          "name": "",
          "type": "uint256"
        }
      ],
      "name": "retails",
      "outputs": [
        {
          "internalType": "uint256",
          "name": "id",
          "type": "uint256"
        },
        {
          "internalType": "string",
          "name": "name",
          "type": "string"
        },
        {
          "internalType": "string",
          "name": "place",
          "type": "string"
        }
      ],
      "stateMutability": "view",
      "type": "function"
    },
    {
      "inputs": [
        {
          "internalType": "address",
          "name": "newOwner",
          "type": "address"
        }
      ],
      "name": "transferOwnership",
      "outputs": [],
      "stateMutability": "nonpayable",
      "type": "function"
    }
  ],
  "bytecode": "0x6080604052600180556001600255600160035560016007553480156200002457600080fd5b5062000045620000396200004b60201b60201c565b6200005360201b60201c565b62000117565b600033905090565b60008060009054906101000a900473ffffffffffffffffffffffffffffffffffffffff169050816000806101000a81548173ffffffffffffffffffffffffffffffffffffffff021916908373ffffffffffffffffffffffffffffffffffffffff1602179055508173ffffffffffffffffffffffffffffffffffffffff168173ffffffffffffffffffffffffffffffffffffffff167f8be0079c531659141344cd1fd0a4f28419497f9722a3daafe3b4186f6b6457e060405160405180910390a35050565b61334780620001276000396000f3fe608060405234801561001057600080fd5b506004361061012c5760003560e01c8063715018a6116100ad578063ae0730b611610071578063ae0730b614610372578063d304ce441461038e578063e5746a8f146103c8578063ec190875146103e4578063f2fde38b146104005761012c565b8063715018a6146102e2578063839ab96e146102ec5780638da5cb5b1461031c57806390b809e31461033a5780639be5e280146103565761012c565b806355a204f9116100f457806355a204f91461020257806360166fe31461023257806366c64e5114610262578063672383c4146102925780636bfb0d01146102c45761012c565b8063018d3e3c146101315780631a7d661f1461014d57806329c4b1141461016957806350b492ba1461019e5780635249b853146101d0575b600080fd5b61014b60048036038101906101469190612168565b61041c565b005b610167600480360381019061016291906122ee565b6106a5565b005b610183600480360381019061017e9190612366565b61073a565b60405161019596959493929190612498565b60405180910390f35b6101b860048036038101906101b39190612366565b610893565b6040516101c793929190612507565b60405180910390f35b6101ea60048036038101906101e59190612366565b6109cd565b6040516101f993929190612507565b60405180910390f35b61021c60048036038101906102179190612366565b610b07565b60405161022991906125fc565b60405180910390f35b61024c60048036038101906102479190612366565b610c62565b6040516102599190612675565b60405180910390f35b61027c60048036038101906102779190612366565b610dbd565b60405161028991906127a9565b60405180910390f35b6102ac60048036038101906102a79190612366565b61118f565b6040516102bb93929190612507565b60405180910390f35b6102cc6112c9565b6040516102d991906127cb565b60405180910390f35b6102ea6112cf565b005b61030660048036038101906103019190612366565b6112e3565b604051610313919061283d565b60405180910390f35b61032461143e565b60405161033191906128a0565b60405180910390f35b610354600480360381019061034f91906128bb565b611467565b005b610370600480360381019061036b91906128bb565b61161a565b005b61038c600480360381019061038791906122ee565b6117cd565b005b6103a860048036038101906103a39190612366565b611862565b6040516103bf9b9a9998979695949392919061290e565b60405180910390f35b6103e260048036038101906103dd91906129e3565b611bec565b005b6103fe60048036038101906103f991906122ee565b611dff565b005b61041a60048036038101906104159190612ac2565b611e94565b005b60066000828152602001908152602001600020600001548114610474576040517f08c379a000000000000000000000000000000000000000000000000000000000815260040161046b90612b3b565b60405180910390fd5b6000600860008481526020019081526020016000206040518060c00160405290816000820154815260200160018201548152602001600282015481526020016003820180546104c290612b8a565b80601f01602080910402602001604051908101604052809291908181526020018280546104ee90612b8a565b801561053b5780601f106105105761010080835404028352916020019161053b565b820191906000526020600020905b81548152906001019060200180831161051e57829003601f168201915b5050505050815260200160048201805461055490612b8a565b80601f016020809104026020016040519081016040528092919081815260200182805461058090612b8a565b80156105cd5780601f106105a2576101008083540402835291602001916105cd565b820191906000526020600020905b8154815290600101906020018083116105b057829003601f168201915b505050505081526020016005820160009054906101000a900460ff1660048111156105fb576105fa612421565b5b600481111561060d5761060c612421565b5b815250509050600081604001511161065a576040517f08c379a000000000000000000000000000000000000000000000000000000000815260040161065190612c07565b60405180910390fd5b6001816040015161066b9190612c56565b60086000858152602001908152602001600020600201819055504260096000858152602001908152602001600020600a0181905550505050565b6106ad611f17565b600060405180606001604052806002548152602001848152602001838152509050806005600060025481526020019081526020016000206000820151816000015560208201518160010190816107039190612e36565b5060408201518160020190816107199190612e36565b509050506002600081548092919061073090612f08565b9190505550505050565b600860205280600052604060002060009150905080600001549080600101549080600201549080600301805461076f90612b8a565b80601f016020809104026020016040519081016040528092919081815260200182805461079b90612b8a565b80156107e85780601f106107bd576101008083540402835291602001916107e8565b820191906000526020600020905b8154815290600101906020018083116107cb57829003601f168201915b5050505050908060040180546107fd90612b8a565b80601f016020809104026020016040519081016040528092919081815260200182805461082990612b8a565b80156108765780601f1061084b57610100808354040283529160200191610876565b820191906000526020600020905b81548152906001019060200180831161085957829003601f168201915b5050505050908060050160009054906101000a900460ff16905086565b60056020528060005260406000206000915090508060000154908060010180546108bc90612b8a565b80601f01602080910402602001604051908101604052809291908181526020018280546108e890612b8a565b80156109355780601f1061090a57610100808354040283529160200191610935565b820191906000526020600020905b81548152906001019060200180831161091857829003601f168201915b50505050509080600201805461094a90612b8a565b80601f016020809104026020016040519081016040528092919081815260200182805461097690612b8a565b80156109c35780601f10610998576101008083540402835291602001916109c3565b820191906000526020600020905b8154815290600101906020018083116109a657829003601f168201915b5050505050905083565b60066020528060005260406000206000915090508060000154908060010180546109f690612b8a565b80601f0160208091040260200160405190810160405280929190818152602001828054610a2290612b8a565b8015610a6f5780601f10610a4457610100808354040283529160200191610a6f565b820191906000526020600020905b815481529060010190602001808311610a5257829003601f168201915b505050505090806002018054610a8490612b8a565b80601f0160208091040260200160405190810160405280929190818152602001828054610ab090612b8a565b8015610afd5780601f10610ad257610100808354040283529160200191610afd565b820191906000526020600020905b815481529060010190602001808311610ae057829003601f168201915b5050505050905083565b610b0f612061565b6004600083815260200190815260200160002060405180606001604052908160008201548152602001600182018054610b4790612b8a565b80601f0160208091040260200160405190810160405280929190818152602001828054610b7390612b8a565b8015610bc05780601f10610b9557610100808354040283529160200191610bc0565b820191906000526020600020905b815481529060010190602001808311610ba357829003601f168201915b50505050508152602001600282018054610bd990612b8a565b80601f0160208091040260200160405190810160405280929190818152602001828054610c0590612b8a565b8015610c525780601f10610c2757610100808354040283529160200191610c52565b820191906000526020600020905b815481529060010190602001808311610c3557829003601f168201915b5050505050815250509050919050565b610c6a612082565b6005600083815260200190815260200160002060405180606001604052908160008201548152602001600182018054610ca290612b8a565b80601f0160208091040260200160405190810160405280929190818152602001828054610cce90612b8a565b8015610d1b5780601f10610cf057610100808354040283529160200191610d1b565b820191906000526020600020905b815481529060010190602001808311610cfe57829003601f168201915b50505050508152602001600282018054610d3490612b8a565b80601f0160208091040260200160405190810160405280929190818152602001828054610d6090612b8a565b8015610dad5780601f10610d8257610100808354040283529160200191610dad565b820191906000526020600020905b815481529060010190602001808311610d9057829003601f168201915b5050505050815250509050919050565b610dc56120a3565b6000600960008481526020019081526020016000206040518061016001604052908160008201548152602001600182018054610e0090612b8a565b80601f0160208091040260200160405190810160405280929190818152602001828054610e2c90612b8a565b8015610e795780601f10610e4e57610100808354040283529160200191610e79565b820191906000526020600020905b815481529060010190602001808311610e5c57829003601f168201915b50505050508152602001600282018054610e9290612b8a565b80601f0160208091040260200160405190810160405280929190818152602001828054610ebe90612b8a565b8015610f0b5780601f10610ee057610100808354040283529160200191610f0b565b820191906000526020600020905b815481529060010190602001808311610eee57829003601f168201915b5050505050815260200160038201548152602001600482018054610f2e90612b8a565b80601f0160208091040260200160405190810160405280929190818152602001828054610f5a90612b8a565b8015610fa75780601f10610f7c57610100808354040283529160200191610fa7565b820191906000526020600020905b815481529060010190602001808311610f8a57829003601f168201915b50505050508152602001600582018054610fc090612b8a565b80601f0160208091040260200160405190810160405280929190818152602001828054610fec90612b8a565b80156110395780601f1061100e57610100808354040283529160200191611039565b820191906000526020600020905b81548152906001019060200180831161101c57829003601f168201915b505050505081526020016006820154815260200160078201805461105c90612b8a565b80601f016020809104026020016040519081016040528092919081815260200182805461108890612b8a565b80156110d55780601f106110aa576101008083540402835291602001916110d5565b820191906000526020600020905b8154815290600101906020018083116110b857829003601f168201915b505050505081526020016008820180546110ee90612b8a565b80601f016020809104026020016040519081016040528092919081815260200182805461111a90612b8a565b80156111675780601f1061113c57610100808354040283529160200191611167565b820191906000526020600020905b81548152906001019060200180831161114a57829003601f168201915b5050505050815260200160098201548152602001600a82015481525050905080915050919050565b60046020528060005260406000206000915090508060000154908060010180546111b890612b8a565b80601f01602080910402602001604051908101604052809291908181526020018280546111e490612b8a565b80156112315780601f1061120657610100808354040283529160200191611231565b820191906000526020600020905b81548152906001019060200180831161121457829003601f168201915b50505050509080600201805461124690612b8a565b80601f016020809104026020016040519081016040528092919081815260200182805461127290612b8a565b80156112bf5780601f10611294576101008083540402835291602001916112bf565b820191906000526020600020905b8154815290600101906020018083116112a257829003601f168201915b5050505050905083565b60075481565b6112d7611f17565b6112e16000611f95565b565b6112eb6120fd565b600660008381526020019081526020016000206040518060600160405290816000820154815260200160018201805461132390612b8a565b80601f016020809104026020016040519081016040528092919081815260200182805461134f90612b8a565b801561139c5780601f106113715761010080835404028352916020019161139c565b820191906000526020600020905b81548152906001019060200180831161137f57829003601f168201915b505050505081526020016002820180546113b590612b8a565b80601f01602080910402602001604051908101604052809291908181526020018280546113e190612b8a565b801561142e5780601f106114035761010080835404028352916020019161142e565b820191906000526020600020905b81548152906001019060200180831161141157829003601f168201915b5050505050815250509050919050565b60008060009054906101000a900473ffffffffffffffffffffffffffffffffffffffff16905090565b600560008281526020019081526020016000206000015481146114bf576040517f08c379a00000000000000000000000000000000000000000000000000000000081526004016114b690612f9c565b60405180910390fd5b600260048111156114d3576114d2612421565b5b6008600085815260200190815260200160002060050160009054906101000a900460ff16600481111561150957611508612421565b5b14611549576040517f08c379a000000000000000000000000000000000000000000000000000000000815260040161154090613008565b60405180910390fd5b60036008600085815260200190815260200160002060050160006101000a81548160ff0219169083600481111561158357611582612421565b5b0217905550600660008381526020019081526020016000206001016009600085815260200190815260200160002060070190816115c09190613053565b50600660008381526020019081526020016000206002016009600085815260200190815260200160002060080190816115f99190613053565b50426009600085815260200190815260200160002060090181905550505050565b60046000828152602001908152602001600020600001548114611672576040517f08c379a000000000000000000000000000000000000000000000000000000000815260040161166990613187565b60405180910390fd5b6001600481111561168657611685612421565b5b6008600085815260200190815260200160002060050160009054906101000a900460ff1660048111156116bc576116bb612421565b5b146116fc576040517f08c379a00000000000000000000000000000000000000000000000000000000081526004016116f390613008565b60405180910390fd5b60026008600085815260200190815260200160002060050160006101000a81548160ff0219169083600481111561173657611735612421565b5b0217905550600560008381526020019081526020016000206001016009600085815260200190815260200160002060040190816117739190613053565b50600560008381526020019081526020016000206002016009600085815260200190815260200160002060050190816117ac9190613053565b50426009600085815260200190815260200160002060060181905550505050565b6117d5611f17565b6000604051806060016040528060035481526020018481526020018381525090508060066000600354815260200190815260200160002060008201518160000155602082015181600101908161182b9190612e36565b5060408201518160020190816118419190612e36565b509050506003600081548092919061185890612f08565b9190505550505050565b600960205280600052604060002060009150905080600001549080600101805461188b90612b8a565b80601f01602080910402602001604051908101604052809291908181526020018280546118b790612b8a565b80156119045780601f106118d957610100808354040283529160200191611904565b820191906000526020600020905b8154815290600101906020018083116118e757829003601f168201915b50505050509080600201805461191990612b8a565b80601f016020809104026020016040519081016040528092919081815260200182805461194590612b8a565b80156119925780601f1061196757610100808354040283529160200191611992565b820191906000526020600020905b81548152906001019060200180831161197557829003601f168201915b5050505050908060030154908060040180546119ad90612b8a565b80601f01602080910402602001604051908101604052809291908181526020018280546119d990612b8a565b8015611a265780601f106119fb57610100808354040283529160200191611a26565b820191906000526020600020905b815481529060010190602001808311611a0957829003601f168201915b505050505090806005018054611a3b90612b8a565b80601f0160208091040260200160405190810160405280929190818152602001828054611a6790612b8a565b8015611ab45780601f10611a8957610100808354040283529160200191611ab4565b820191906000526020600020905b815481529060010190602001808311611a9757829003601f168201915b505050505090806006015490806007018054611acf90612b8a565b80601f0160208091040260200160405190810160405280929190818152602001828054611afb90612b8a565b8015611b485780601f10611b1d57610100808354040283529160200191611b48565b820191906000526020600020905b815481529060010190602001808311611b2b57829003601f168201915b505050505090806008018054611b5d90612b8a565b80601f0160208091040260200160405190810160405280929190818152602001828054611b8990612b8a565b8015611bd65780601f10611bab57610100808354040283529160200191611bd6565b820191906000526020600020905b815481529060010190602001808311611bb957829003601f168201915b50505050509080600901549080600a015490508b565b60046000858152602001908152602001600020600001548414611c44576040517f08c379a0000000000000000000000000000000000000000000000000000000008152600401611c3b906131f3565b60405180910390fd5b6040518060c00160405280600754815260200183815260200184815260200186815260200182815260200160016004811115611c8357611c82612421565b5b8152506008600060075481526020019081526020016000206000820151816000015560208201518160010155604082015181600201556060820151816003019081611cce9190612e36565b506080820151816004019081611ce49190612e36565b5060a08201518160050160006101000a81548160ff02191690836004811115611d1057611d0f612421565b5b02179055509050506008600060075481526020019081526020016000206000015460096000600754815260200190815260200160002060000181905550600460008581526020019081526020016000206001016009600060075481526020019081526020016000206001019081611d879190613053565b50600460008581526020019081526020016000206002016009600060075481526020019081526020016000206002019081611dc29190613053565b50426009600060075481526020019081526020016000206003018190555060076000815480929190611df390612f08565b91905055505050505050565b611e07611f17565b60006040518060600160405280600154815260200184815260200183815250905080600460006001548152602001908152602001600020600082015181600001556020820151816001019081611e5d9190612e36565b506040820151816002019081611e739190612e36565b5090505060016000815480929190611e8a90612f08565b9190505550505050565b611e9c611f17565b600073ffffffffffffffffffffffffffffffffffffffff168173ffffffffffffffffffffffffffffffffffffffff1603611f0b576040517f08c379a0000000000000000000000000000000000000000000000000000000008152600401611f0290613285565b60405180910390fd5b611f1481611f95565b50565b611f1f612059565b73ffffffffffffffffffffffffffffffffffffffff16611f3d61143e565b73ffffffffffffffffffffffffffffffffffffffff1614611f93576040517f08c379a0000000000000000000000000000000000000000000000000000000008152600401611f8a906132f1565b60405180910390fd5b565b60008060009054906101000a900473ffffffffffffffffffffffffffffffffffffffff169050816000806101000a81548173ffffffffffffffffffffffffffffffffffffffff021916908373ffffffffffffffffffffffffffffffffffffffff1602179055508173ffffffffffffffffffffffffffffffffffffffff168173ffffffffffffffffffffffffffffffffffffffff167f8be0079c531659141344cd1fd0a4f28419497f9722a3daafe3b4186f6b6457e060405160405180910390a35050565b600033905090565b60405180606001604052806000815260200160608152602001606081525090565b60405180606001604052806000815260200160608152602001606081525090565b60405180610160016040528060008152602001606081526020016060815260200160008152602001606081526020016060815260200160008152602001606081526020016060815260200160008152602001600081525090565b60405180606001604052806000815260200160608152602001606081525090565b6000604051905090565b600080fd5b600080fd5b6000819050919050565b61214581612132565b811461215057600080fd5b50565b6000813590506121628161213c565b92915050565b6000806040838503121561217f5761217e612128565b5b600061218d85828601612153565b925050602061219e85828601612153565b9150509250929050565b600080fd5b600080fd5b6000601f19601f8301169050919050565b7f4e487b7100000000000000000000000000000000000000000000000000000000600052604160045260246000fd5b6121fb826121b2565b810181811067ffffffffffffffff8211171561221a576122196121c3565b5b80604052505050565b600061222d61211e565b905061223982826121f2565b919050565b600067ffffffffffffffff821115612259576122586121c3565b5b612262826121b2565b9050602081019050919050565b82818337600083830152505050565b600061229161228c8461223e565b612223565b9050828152602081018484840111156122ad576122ac6121ad565b5b6122b884828561226f565b509392505050565b600082601f8301126122d5576122d46121a8565b5b81356122e584826020860161227e565b91505092915050565b6000806040838503121561230557612304612128565b5b600083013567ffffffffffffffff8111156123235761232261212d565b5b61232f858286016122c0565b925050602083013567ffffffffffffffff8111156123505761234f61212d565b5b61235c858286016122c0565b9150509250929050565b60006020828403121561237c5761237b612128565b5b600061238a84828501612153565b91505092915050565b61239c81612132565b82525050565b600081519050919050565b600082825260208201905092915050565b60005b838110156123dc5780820151818401526020810190506123c1565b60008484015250505050565b60006123f3826123a2565b6123fd81856123ad565b935061240d8185602086016123be565b612416816121b2565b840191505092915050565b7f4e487b7100000000000000000000000000000000000000000000000000000000600052602160045260246000fd5b6005811061246157612460612421565b5b50565b600081905061247282612450565b919050565b600061248282612464565b9050919050565b61249281612477565b82525050565b600060c0820190506124ad6000830189612393565b6124ba6020830188612393565b6124c76040830187612393565b81810360608301526124d981866123e8565b905081810360808301526124ed81856123e8565b90506124fc60a0830184612489565b979650505050505050565b600060608201905061251c6000830186612393565b818103602083015261252e81856123e8565b9050818103604083015261254281846123e8565b9050949350505050565b61255581612132565b82525050565b600082825260208201905092915050565b6000612577826123a2565b612581818561255b565b93506125918185602086016123be565b61259a816121b2565b840191505092915050565b60006060830160008301516125bd600086018261254c565b50602083015184820360208601526125d5828261256c565b915050604083015184820360408601526125ef828261256c565b9150508091505092915050565b6000602082019050818103600083015261261681846125a5565b905092915050565b6000606083016000830151612636600086018261254c565b506020830151848203602086015261264e828261256c565b91505060408301518482036040860152612668828261256c565b9150508091505092915050565b6000602082019050818103600083015261268f818461261e565b905092915050565b6000610160830160008301516126b0600086018261254c565b50602083015184820360208601526126c8828261256c565b915050604083015184820360408601526126e2828261256c565b91505060608301516126f7606086018261254c565b506080830151848203608086015261270f828261256c565b91505060a083015184820360a0860152612729828261256c565b91505060c083015161273e60c086018261254c565b5060e083015184820360e0860152612756828261256c565b915050610100830151848203610100860152612772828261256c565b91505061012083015161278961012086018261254c565b5061014083015161279e61014086018261254c565b508091505092915050565b600060208201905081810360008301526127c38184612697565b905092915050565b60006020820190506127e06000830184612393565b92915050565b60006060830160008301516127fe600086018261254c565b5060208301518482036020860152612816828261256c565b91505060408301518482036040860152612830828261256c565b9150508091505092915050565b6000602082019050818103600083015261285781846127e6565b905092915050565b600073ffffffffffffffffffffffffffffffffffffffff82169050919050565b600061288a8261285f565b9050919050565b61289a8161287f565b82525050565b60006020820190506128b56000830184612891565b92915050565b6000806000606084860312156128d4576128d3612128565b5b60006128e286828701612153565b93505060206128f386828701612153565b925050604061290486828701612153565b9150509250925092565b600061016082019050612924600083018e612393565b8181036020830152612936818d6123e8565b9050818103604083015261294a818c6123e8565b9050612959606083018b612393565b818103608083015261296b818a6123e8565b905081810360a083015261297f81896123e8565b905061298e60c0830188612393565b81810360e08301526129a081876123e8565b90508181036101008301526129b581866123e8565b90506129c5610120830185612393565b6129d3610140830184612393565b9c9b505050505050505050505050565b600080600080600060a086880312156129ff576129fe612128565b5b600086013567ffffffffffffffff811115612a1d57612a1c61212d565b5b612a29888289016122c0565b9550506020612a3a88828901612153565b9450506040612a4b88828901612153565b9350506060612a5c88828901612153565b925050608086013567ffffffffffffffff811115612a7d57612a7c61212d565b5b612a89888289016122c0565b9150509295509295909350565b612a9f8161287f565b8114612aaa57600080fd5b50565b600081359050612abc81612a96565b92915050565b600060208284031215612ad857612ad7612128565b5b6000612ae684828501612aad565b91505092915050565b7f57726f6e672052657461696c2049640000000000000000000000000000000000600082015250565b6000612b25600f836123ad565b9150612b3082612aef565b602082019050919050565b60006020820190508181036000830152612b5481612b18565b9050919050565b7f4e487b7100000000000000000000000000000000000000000000000000000000600052602260045260246000fd5b60006002820490506001821680612ba257607f821691505b602082108103612bb557612bb4612b5b565b5b50919050565b7f50726f64756374204f7574204f662053746f636b000000000000000000000000600082015250565b6000612bf16014836123ad565b9150612bfc82612bbb565b602082019050919050565b60006020820190508181036000830152612c2081612be4565b9050919050565b7f4e487b7100000000000000000000000000000000000000000000000000000000600052601160045260246000fd5b6000612c6182612132565b9150612c6c83612132565b9250828203905081811115612c8457612c83612c27565b5b92915050565b60008190508160005260206000209050919050565b60006020601f8301049050919050565b600082821b905092915050565b600060088302612cec7fffffffffffffffffffffffffffffffffffffffffffffffffffffffffffffffff82612caf565b612cf68683612caf565b95508019841693508086168417925050509392505050565b6000819050919050565b6000612d33612d2e612d2984612132565b612d0e565b612132565b9050919050565b6000819050919050565b612d4d83612d18565b612d61612d5982612d3a565b848454612cbc565b825550505050565b600090565b612d76612d69565b612d81818484612d44565b505050565b5b81811015612da557612d9a600082612d6e565b600181019050612d87565b5050565b601f821115612dea57612dbb81612c8a565b612dc484612c9f565b81016020851015612dd3578190505b612de7612ddf85612c9f565b830182612d86565b50505b505050565b600082821c905092915050565b6000612e0d60001984600802612def565b1980831691505092915050565b6000612e268383612dfc565b9150826002028217905092915050565b612e3f826123a2565b67ffffffffffffffff811115612e5857612e576121c3565b5b612e628254612b8a565b612e6d828285612da9565b600060209050601f831160018114612ea05760008415612e8e578287015190505b612e988582612e1a565b865550612f00565b601f198416612eae86612c8a565b60005b82811015612ed657848901518255600182019150602085019450602081019050612eb1565b86831015612ef35784890151612eef601f891682612dfc565b8355505b6001600288020188555050505b505050505050565b6000612f1382612132565b91507fffffffffffffffffffffffffffffffffffffffffffffffffffffffffffffffff8203612f4557612f44612c27565b5b600182019050919050565b7f57726f6e67204469737472696275746f72204964000000000000000000000000600082015250565b6000612f866014836123ad565b9150612f9182612f50565b602082019050919050565b60006020820190508181036000830152612fb581612f79565b9050919050565b7f77726f6e67207374616765000000000000000000000000000000000000000000600082015250565b6000612ff2600b836123ad565b9150612ffd82612fbc565b602082019050919050565b6000602082019050818103600083015261302181612fe5565b9050919050565b60008154905061303781612b8a565b9050919050565b60008190508160005260206000209050919050565b818103613061575050613139565b61306a82613028565b67ffffffffffffffff811115613083576130826121c3565b5b61308d8254612b8a565b613098828285612da9565b6000601f8311600181146130c757600084156130b5578287015490505b6130bf8582612e1a565b865550613132565b601f1984166130d58761303e565b96506130e086612c8a565b60005b82811015613108578489015482556001820191506001850194506020810190506130e3565b868310156131255784890154613121601f891682612dfc565b8355505b6001600288020188555050505b5050505050505b565b7f57726f6e6720466163746f727920496400000000000000000000000000000000600082015250565b60006131716010836123ad565b915061317c8261313b565b602082019050919050565b600060208201905081810360008301526131a081613164565b9050919050565b7f57726f6e6720466163746f727920496420000000000000000000000000000000600082015250565b60006131dd6011836123ad565b91506131e8826131a7565b602082019050919050565b6000602082019050818103600083015261320c816131d0565b9050919050565b7f4f776e61626c653a206e6577206f776e657220697320746865207a65726f206160008201527f6464726573730000000000000000000000000000000000000000000000000000602082015250565b600061326f6026836123ad565b915061327a82613213565b604082019050919050565b6000602082019050818103600083015261329e81613262565b9050919050565b7f4f776e61626c653a2063616c6c6572206973206e6f7420746865206f776e6572600082015250565b60006132db6020836123ad565b91506132e6826132a5565b602082019050919050565b6000602082019050818103600083015261330a816132ce565b905091905056fea2646970667358221220f92dfe2f8e20c9c5359ee60b739ceea98fde17688f725f2c7e5a9987a70aa0b764736f6c63430008110033",
  "linkReferences": {},
  "deployedLinkReferences": {}
}